S01500005265616C54696D65436C6F636B2E7372656310
S11300000C942A000C9447000C9447000C9447006D
S11300100C9447000C94C8070C9447000C944700B8
S11300200C9447000C9447000C9447000C94470030
S11300300C9447000C9447000C9447000C94470020
S11300400C9447000C9447000C9447000C94470010
S11300500C94470011241FBECFE5D8E0DEBFCDBF0E
S113006010E0A0E6B0E0EEECFFE002C005900D92D7
S1130070A23BB107D9F710E0A2EBB0E001C01D929A
S1130080A53BB107E1F70E94D2050C94E5070C9457
S11300900000CF93C82F60E041E00E9441028C2F02
S11300A061E041E00E9441028C2F62E041E00E9445
S11300B041028C2F63E041E00E9441028C2F64E0F6
S11300C040E00E9441028C2F65E040E00E94410222
S11300D08C2F66E040E00E9441028C2F67E040E0F4
S11300E00E9441028C2F64E041E00E9466048C2F40
S11300F065E041E00E9466048C2F66E041E00E94C6
S113010066048C2F67E041E00E946604CF91089555
S1130110FF920F931F93CF93DF93CDB7DEB7609712
S11301200FB6F894DEBF0FBECDBF082FDE011196C7
S1130130E0E6F0E080E101900D928150E1F7FF24C8
S1130140802F60E041E00E94D202802F61E041E014
S11301500E94D202802F62E041E00E94D202802FEE
S113016063E041E00E94D202802F6F2D40E00E94A4
S1130170D20210E0612F6C5F802F0E9499038823C4
S113018061F4EF2DF0E0EE0FFF1FEE0FFF1FE10F04
S1130190F11DEC0FFD1F818104C01F5F143051F766
S11301A00CC060960FB6F894DEBF0FBECDBFDF91D2
S11301B0CF911F910F91FF900895F39484E0F81666
S11301C009F0BECF8FEFEDCF82E660E041E00E9400
S11301D0D2028FE99FE00197F1F700C0000082E6A8
S11301E060E040E00E94D2028FE99FE00197F1F7BE
S11301F000C000000895CF93C82F682F62956F70D8
S113020083E60E94F70482E461E040E00E94D202A7
S11302100E94E4008FEC97E00197F1F700C0000022
S113022083E66C2F0E94F70482E461E040E00E94C0
S1130230D2020E94E4008FEC97E00197F1F700C02E
S11302400000CF9108958FEF91EEA4E0815090408B
S1130250A040E1F700C0000083E660E041E00E94B6
S1130260410283E661E041E00E94410283E662E0EC
S113027041E00E94410283E663E041E00E944102C2
S113028083E664E041E00E94410282E660E041E0EE
S11302900E94410282E661E041E00E94410282E65E
S11302A062E041E00E94410282E662E040E00E9496
S11302B0D20282E00E94FB00AFE1BEE41197F1F7A5
S11302C000C0000088E20E94FB008FEC97E00197D9
S11302D0F1F700C000008CE00E94FB00AFECB7E037
S11302E01197F1F700C0000081E00E94FB008FE14C
S11302F09EE40197F1F700C0000086E00E94FB0035
S1130300AFECB7E01197F1F700C000000895CF9368
S1130310C82F682F62956F7083E60E94F70482E409
S113032061E041E00E94D2020E94E4008FEC97E079
S11303300197F1F700C0000083E66C2F0E94F704D8
S113034082E461E041E00E94D2020E94E4008FEC6A
S113035097E00197F1F700C00000CF910895CF9383
S1130360DF93EC018881882331F021960E94870174
S113037089918823D9F7DF91CF91089581E00E9474
S1130380FB008FE19EE40197F1F700C0000008959F
S113039082E00E94FB008FE19EE40197F1F700C028
S11303A000000895813059F4862F81580E94FB0083
S11303B08FE19EE40197F1F700C0000008958230B8
S11303C059F4862F81540E94FB008FE19EE401972B
S11303D0F1F700C0000008950E94C8018FE19EE477
S11303E00197F1F700C0000008956FEF0E94010427
S11303F00895E0E7F0E0E60FF11D60810E9420041B
S11304000895CF93C82F60E041E00E9441028C2FF1
S113041061E041E00E9441028C2F62E041E00E94D1
S113042041028C2F63E041E00E944102CF91089584
S1130430CF93C82F64E041E00E9441028C2F65E015
S113044041E00E9441028C2F66E041E00E9441029B
S11304508C2F67E041E00E944102CF9108950E94F1
S1130460F70408950E942B05089541E00E9441027B
S1130470089540E00E94D202089541E00E94D20211
S11304800895843409F471C0853448F4823499F1B0
S1130490833408F04DC0813409F083C00FC0823624
S11304A051F1833620F4813609F07BC007C08336CE
S11304B009F43EC0843609F074C057C0442371F473
S11304C02AB381E090E0AC0102C0440F551F6A9545
S11304D0E2F7BA01609562236ABB08952AB381E00A
S11304E090E0AC0102C0440F551F6A95E2F7BA01CF
S11304F0622B6ABB0895442371F427B381E090E032
S1130500AC0102C0440F551F6A95E2F7BA01609529
S1130510622367BB089527B381E090E0AC0102C079
S1130520440F551F6A95E2F7BA01622B67BB089521
S1130530442371F424B381E090E0AC0102C0440F81
S1130540551F6A95E2F7BA016095622364BB08956A
S113055024B381E090E0AC0102C0440F551F6A95BA
S1130560E2F7BA01622B64BB0895442371F421B30A
S113057081E090E0AC0102C0440F551F6A95E2F798
S1130580BA016095622361BB089521B381E090E0D4
S1130590AC0102C0440F551F6A95E2F7BA01622B01
S11305A061BB0895843409F471C0853448F48234FD
S11305B099F1833408F04DC0813409F083C00FC031
S11305C0823651F1833620F4813609F07BC007C0AE
S11305D0833609F43EC0843609F074C057C04130F4
S11305E069F42BB381E090E0AC0102C0440F551FC5
S11305F06A95E2F7BA01622B6BBB08952BB381E0D5
S113060090E0AC0102C0440F551F6A95E2F7BA01AD
S1130610609562236BBB0895413069F428B381E08F
S113062090E0AC0102C0440F551F6A95E2F7BA018D
S1130630622B68BB089528B381E090E0AC0102C04E
S1130640440F551F6A95E2F7BA016095622368BBAF
S11306500895413069F425B381E090E0AC0102C013
S1130660440F551F6A95E2F7BA01622B65BB0895E2
S113067025B381E090E0AC0102C0440F551F6A9598
S1130680E2F7BA016095622365BB0895413069F4CD
S113069022B381E090E0AC0102C0440F551F6A957B
S11306A0E2F7BA01622B62BB089522B381E090E0C5
S11306B0AC0102C0440F551F6A95E2F7BA01609578
S11306C0622362BB0895833439F1843428F481347D
S11306D049F0823469F513C0823689F08336E1F03B
S11306E0813631F52BB381E090E0AC0102C0440FB8
S11306F0551F6A95E2F7BA0162276BBB089528B3C8
S113070081E090E0AC0102C0440F551F6A95E2F706
S1130710BA01622768BB089525B381E090E0AC017B
S113072002C0440F551F6A95E2F7BA01622765BB00
S11307300895843409F451C0853440F4823439F185
S11307408334C0F5813409F05AC00EC08236F9F002
S1130750833620F4813609F052C006C0833651F145
S1130760843609F04CC039C029B381E090E0062EEC
S113077002C0880F991F0A94E2F730E08223932382
S113078002C0959587956A95E2F7982F38C026B3ED
S113079081E090E0062E02C0880F991F0A94E2F7C8
S11307A030E08223932302C0959587956A95E2F7FA
S11307B0982F25C023B381E090E0062E02C0880F55
S11307C0991F0A94E2F730E08223932302C095959F
S11307D087956A95E2F7982F12C020B381E090E0E4
S11307E0062E02C0880F991F0A94E2F730E0822394
S11307F0932302C0959587956A95E2F7982F892FE0
S113080008958434D9F0853438F4823499F08334EB
S113081098F48134A1F40CC0823661F0833618F464
S1130820813669F405C0833639F0843641F406C054
S11308306ABB089567BB089564BB089561BB0895BE
S11308408434D9F0853438F4823499F0833498F4BC
S11308508134A1F40CC0823661F0833618F48136F9
S113086069F405C0833639F0843641F406C06BBBA5
S1130870089568BB089565BB089562BB08958434E8
S113088009F1853438F48234A9F08334B8F481341E
S1130890E1F40CC0823671F0833618F48136A9F481
S11308A005C0833659F0843681F40CC08BB380952F
S11308B08BBB089588B3809588BB089585B38095D4
S11308C085BB089582B3809582BB0895843409F46E
S11308D071C0853448F4823499F1833408F04DC0F2
S11308E0813409F083C00FC0823651F1833620F47D
S11308F0813609F07BC007C0833609F43EC08436D4
S113090009F074C057C0413069F42BB381E090E022
S1130910AC0102C0440F551F6A95E2F7BA01622B7D
S11309206BBB08952BB381E090E0AC0102C0440F8F
S1130930551F6A95E2F7BA01609562236BBB08956F
S1130940413069F428B381E090E0AC0102C0440F67
S1130950551F6A95E2F7BA01622B68BB089528B364
S113096081E090E0AC0102C0440F551F6A95E2F7A4
S1130970BA016095622368BB0895413069F425B3D8
S113098081E090E0AC0102C0440F551F6A95E2F784
S1130990BA01622B65BB089525B381E090E0AC01F8
S11309A002C0440F551F6A95E2F7BA0160956223AD
S11309B065BB0895413069F422B381E090E0AC0155
S11309C002C0440F551F6A95E2F7BA01622B62BB5D
S11309D0089522B381E090E0AC0102C0440F551F9A
S11309E06A95E2F7BA016095622362BB08956F705D
S11309F0843451F1853438F48234C1F08334E8F41A
S1130A00813441F50CC0823689F0833618F481367E
S1130A1009F505C0833689F08436E1F415C08BB33B
S1130A20807F8BBB8BB3682B6BBB089588B3807FAF
S1130A3088BB88B3682B68BB089585B3807F85BB6A
S1130A4085B3682B65BB089582B3807F82BB82B374
S1130A50682B62BB08956295607F843451F18534BC
S1130A6038F48234C1F08334E8F4813441F50CC0A5
S1130A70823689F0833618F4813609F505C0833649
S1130A8089F08436E1F415C08BB38F708BBB8BB3C4
S1130A90682B6BBB089588B38F7088BB88B3682BB1
S1130AA068BB089585B38F7085BB85B3682B65BB20
S1130AB0089582B38F7082BB82B3682B62BB0895A2
S1130AC082B5886082BD85B5816085BD85B5846049
S1130AD085BD789489B7806489BF089583B7886099
S1130AE083BF83B78F7B83BF83B7816083BF83B7A3
S1130AF0846083BF80E48CBF89B7826089BF7894A7
S1130B00089582E690E063E070E041E050E00E94E6
S1130B10410283B7886083BF83B78F7B83BF83B76A
S1130B20816083BF83B7846083BF80E48CBF83B755
S1130B30806183BF089582E690E063E070E041E065
S1130B4050E00E94410283B7886083BF83B780640A
S1130B5083BF80E48CBF83B7816083BF83B7846025
S1130B6083BF83B7806283BF83B78F7E83BF0895BB
S1130B7082E690E063E070E041E050E00E944102D0
S1130B8083B7806483BF80E48CBF83B7816083BFF5
S1130B9083B7846083BF83B7806283BF83B78F7E4C
S1130BA083BF089581E60E94F50183E664E00E9414
S1130BB0350283E665E00E94350282E464E00E9427
S1130BC0350282E465E00E94350282E466E00E9418
S1130BD0350282E467E00E94350283E664E00E9405
S1130BE03D0283E665E00E943D0282E464E00E94E7
S1130BF03D0282E465E00E943D0282E466E00E94D8
S1130C003D0282E467E00E943D020E94230184E6E3
S1130C100E94490080E890E00E94AF0182E061E018
S1130C200E94D2018BE890E00E94AF010E9460050F
S1130C30CAE005E910E00F2EFDE9EF2EF0E0FF2EEB
S1130C40F02D0F2EF7EACF2EF0E0DF2EF02D0F2E31
S1130C50F0E8AF2EF0E0BF2EF02D0F2EFBE88F2E24
S1130C60F0E09F2EF02D8091B4008C3338F0109278
S1130C70B4008091B3008F5F8093B3008091B30080
S1130C808C3338F01092B3008091B2008F5F809360
S1130C90B2008091B200883110F01092B20083E665
S1130CA064E00E94390283E665E00E943D0280917F
S1130CB0B4006C2F0E94D90781E6692F0E94F901C4
S1130CC08FEC97E00197F1F700C0000083E665E040
S1130CD00E94390283E664E00E943D028091B400E0
S1130CE06C2F0E94D907682F81E60E94F901AFECAE
S1130CF0B7E01197F1F700C0000083E665E00E94B9
S1130D003D0282E664E00E9439028091B3006C2FB8
S1130D100E94D90781E6692F0E94F9018FEC97E0C0
S1130D200197F1F700C0000082E665E00E943902F5
S1130D3082E664E00E943D028091B3006C2F0E9421
S1130D40D907682F81E60E94F901AFECB7E011974B
S1130D50F1F700C0000082E665E00E943D0282E6F1
S1130D6066E00E9439028091B2006C2F0E94D9077C
S1130D7081E6692F0E94F9018FEC97E00197F1F762
S1130D8000C0000082E667E00E94390282E666E065
S1130D900E943D028091B2006C2F0E94D907682FF7
S1130DA081E60E94F901AFECB7E01197F1F700C0BA
S1130DB0000082E667E00E943D028FE097E201971F
S1130DC0F1F700C0000084E60E948800813309F036
S1130DD04ACF0E94BE01C8010E94AF012FEF32E545
S1130DE047E0215030404040E1F700C0000084E675
S1130DF00E9488008F3FD9F32FEF32E547E021505E
S1130E0030404040E1F700C00000982F990F292F8F
S1130E10220F220F920F905E9093B2000E948701DE
S1130E2084E60E9488008F3FD9F32FEF32E547E034
S1130E30215030404040E1F700C000009091B200E2
S1130E409053980F9093B2000E9487018FEF99E618
S1130E50A8E181509040A040E1F700C000000E944A
S1130E60BE01C7010E94AF012FEF32E547E02150D8
S1130E7030404040E1F700C0000084E60E94880052
S1130E808F3FD9F32FEF32E547E021503040404007
S1130E90E1F700C00000982F990F292F220F220F8D
S1130EA0920F905E9093B3000E94870184E60E94A3
S1130EB088008F3FD9F32FEF32E547E021503040CF
S1130EC04040E1F700C000009091B3009053980FA8
S1130ED09093B3000E9487018FEF99E6A8E18150B7
S1130EE09040A040E1F700C000000E94BE01C6018E
S1130EF00E94AF012FEF32E547E0215030404040DF
S1130F00E1F700C0000084E60E9488008F3FD9F317
S1130F102FEF32E547E0215030404040E1F700C078
S1130F200000982F990F292F220F220F920F905E05
S1130F309093B4000E94870184E60E9488008F3F4A
S1130F40D9F32FEF32E547E0215030404040E1F73C
S1130F5000C000009091B4009053980F9093B40097
S1130F600E9487018FEF99E6A8E181509040A0404C
S1130F70E1F700C000000E94BE01C5010E94AF015C
S1130F8082E061E00E94D201C4010E94AF016BCEF5
S1130F901F920F920FB60F9211248F938091B40079
S1130FA08F5F8093B4008F910F900FBE0F901F90AE
S1130FB01895991B79E004C0991F961708F0961BA1
S1110FC0881F7A95C9F780950895F894FFCF9D
S1130FCE3132332B3435362D373839202A303D2EF5
S1130FDE3F065B4F666D7D477F6F777F393F797133
S1130FEE5072657373203120746F007365742063BF
S1130FFE6C6F636B00686F7572733A20006D696E67
S113100E757465733A20007365636F6E64733A206A
S105101E0000CC
S9030000FC
